:060000000A128A11142906
:100200008A010A140F3982073F3406345B344F34B5
:1002100066346D347D3407347F346F3477347C3406
:1002200039345E34793471344D213E2183160317FD
:100230008801890103138316F03086008701F730A7
:100240008500F0308800031383128601870188013E
:1002500085010518542185185821080800218700B8
:100260000B1D29294921860A0608080203193B218A
:10027000031D85112929851586010800031383169E
:100280008112811101158114011403138312492174
:100290000800F03081000B110800031383160F13C0
:1002A0008F120F120F14080005185429880A08002D
:0802B000851858298803080095
:04400E00C430FF3F7C
:00000001FF
